:020000040800F2
:1000000040110020010100081D1F00089514000880
:10001000E91D00084D0A0008013300080000000037
:10002000000000000000000000000000312B00086C
:100030005D0A000800000000692A0008D92C0008A9
:100040001B0100081B0100081B0100081B01000820
:100050001B0100081B0100081B0100081B01000810
:100060001B0100081B0100081B0100081B01000800
:100070001B0100081B0100081B0100081B010008F0
:100080001B0100081B0100081B0100081B010008E0
:100090001B0100081B0100081B0100081B010008D0
:1000A0001B0100081B0100081B0100081B010008C0
:1000B0001B0100081B0100081B0100081B010008B0
:1000C0001B0100081B0100081B0100081B010008A0
:1000D0001B0100081B0100081B0100081B01000890
:1000E000D51100081B0100081B010008DFF80CD027
:1000F00000F0CEFB004800472933000840110020E3
:100100000648804706480047FEE7FEE7FEE7FEE7B1
:10011000FEE7FEE7FEE7FEE7FEE7FEE7DD2C000870
:10012000ED0000080649074A0868504343F23902C7
:10013000104408604008704701490860704700009B
:10014000000000206D4EC64140EA01039B0703D02A
:1001500009E008C9121F08C0042AFAD203E011F806
:10016000013B00F8013B521EF9D27047D2B201E0C8
:1001700000F8012B491EFBD270470022F6E710B5AC
:1001800013460A4604461946FFF7F0FF204610BD05
:10019000421C10F8011B0029FBD1801A704710B5D2
:1001A000002200E0521C835C8C5CA34201D1002B36
:1001B000F8D1D8B2E1B2401A10BDF0B480EA010221
:1001C000D40F4200B2EB410F02D20246084611465C
:1001D0004A0042D0C30DDDB2C1F3C752AD1A202D83
:1001E00035DAC1F3160141F4000204B15242C5F1FF
:1001F000200602FA06F12A411044B3EBD05F23D067
:10020000C4B1012DA0EBC35009DCF0BC4FF000429B
:1002100002EAC352DBB200F5000000F053B940001F
:1002200000F1807000EBC350A0F1807040EAD17003
:10023000490009E0490841EAC071A0EBC35000F54C
:100240000000400800EBC350F0BC00F032B961423E
:10025000012202EB4101001BF6E7F0BC704781F080
:100260000041AAE780F00040A7E780EA010210B54C
:1002700002F00043400022D04A001FD0010E01EBE3
:100280001261C0F35600C2F3560240F4000042F47B
:100290000002A0FB022000047F39140400D0401C9F
:1002A00050EA124001D44000491EC2B20C0604EBD1
:1002B000D010401C4008802A02D003E0002010BD6E
:1002C00020F00100002900DA0020184310BD30B4EE
:1002D00080EA010202F0004530F0004221F00040C7
:1002E00013D090B1C30DD40DC2F31601C0F31600A4
:1002F000E41A41F4000140F400027D34914201D33C
:10030000641C00E04900002C02DA30BC0020704779
:100310004FF400000023914201D3891A034340089F
:100320004FEA4101F7D151B1914202D14FF0004162
:1003300005E002D24FF0010101E06FF0010103EB93
:10034000C450284430BC00F0B4B8002801DBC0F130
:100350000040002901DBC1F10041814201D80120A8
:10036000704700207047002801DBC0F100400029E1
:1003700001DBC1F10041814201D201207047002020
:100380007047002801DBC0F10040002901DBC1F10A
:100390000041814201D301207047002070470028AE
:1003A00001DBC0F10040002901DBC1F100418142C5
:1003B00001D90120704700207047C10F80EAE0702A
:1003C0000844CA079623002100F07CB800F00042E0
:1003D00020F00040C10DC0F3160040F400007F295A
:1003E00001DA00207047962903DCC1F19601C8406C
:1003F00001E096398840002AF4D04042704700F06E
:10040000004230F000400AD0C10D01F56071C0F328
:10041000160042EA0151C20840071143704700200C
:100420000146704730B50B460146002020220124CA
:1004300009E021FA02F59D4205D303FA02F5491BB2
:1004400004FA02F52844151EA2F10102F1DC30BDC8
:100450002DE9F05F0546002092469B4688460646F9
:10046000814640241BE0284641464746224600F08C
:1004700036FA53465A46C01A914110D311461846CF
:10048000224600F01DFA2D1A67EB01084F4622465E
:100490000120002100F014FA17EB00094E41201E44
:1004A000A4F10104DFDC484631462A464346BDE854
:1004B000F09F0029A8BF7047401C490008BF20F0EA
:1004C0000100704710B4B0FA80FC00FA0CF050EA5A
:1004D000010404BF10BC704749B1CCF1200421FADB
:1004E00004F411FA0CF118BF012121430843A3EBD6
:1004F0000C01CB1D4FEA00614FEA102042BF0020E3
:1005000010BC704700EBC35010440029A4BF10BCBE
:100510007047401C490008BF20F0010010BC704724
:100520002DE9FE4F804681EA0300C00F0C46009083
:1005300021F0004123F00045B8EB0200A94105D2AB
:100540004046214690461C460B46024623F000409A
:10055000104347D0270DC7F30A00C3F30A51029096
:10056000401A019040286BDAC3F3130040F4801B5B
:100570000098924620B10023D2EB030A63EB0B0BE9
:1005800001985946C0F14002504600F099F90646DC
:100590000D4650465946019A00F0B1F910EB08009B
:1005A0006141002487EA115284EAE7731A4340D07C
:1005B000009A62B3019A012A4FEA075215DC001B28
:1005C00061EB02014FF0004202EA0752CDE900421E
:1005D000001C41F5801132462B4600F0B1F903B002
:1005E000BDE8F08F40462146F9E7001B61EB0201B0
:1005F000001C41F5801300185B412018A2F500177C
:1006000047EB030140EAD570B6196D4111E06D0862
:100610004FEA360645EAC0754FEA0752001B61EB08
:100620000201001C41F5801149084FEA3000001911
:10063000514132462B4603B0BDE8F04F00F071B98E
:100640000098012240000023D0EB020263EBE0732C
:10065000009821464FEAE074B8EB000061EB04011A
:10066000E9E783F000435BE781F0004158E72DE9BB
:10067000FE4F81EA030404F0004421F0004100949D
:100680004FF0000B23F0004350EA01045ED052EA21
:1006900003045BD0C3F30A54C1F30A552C44A4F2FB
:1006A000F3340194A0FB0254C1F3130141F480110F
:1006B000C3F3130343F4801301FB024400FB034E16
:1006C000840A970A44EA815447EA8357A4FB0768DF
:1006D00002958D0A05FB07854FEA932C04FB0C5409
:1006E0002705029D4FEA065847EA1637B5EB08057D
:1006F0006EEB070C870E920E47EA811742EA8312CF
:10070000A7FB0201B6EB0B0164EB00042B0D43EADF
:100710000C335E1844EB1C50DA465146E7FB0201ED
:10072000C5F313044FEA0B3343EA14534FEA043280
:10073000019C43EA0603A4F10C040294009CCDE959
:1007400000B400F0FDF803B0BDE8F08F00200146D2
:10075000F9E72DE9F04D81EA030404F0004B21F0A4
:10076000004514464FF0000A23F0004150EA05020C
:1007700020D054EA01021DD0C5F30A570246C5F342
:100780001303C1F31300C1F30A5640F4801543F478
:100790008013A7EB0608101BD64608F2FD3873EB52
:1007A000050002D308F1010801E092185B41B8F19D
:1007B000000F03DA00200146BDE8F08D00204FF461
:1007C0008011064684460EE0171B73EB050705D320
:1007D000121B63EB050306434CEA010C49084FEA80
:1007E000300092185B4150EA0107EDD152EA030054
:1007F00012D082EA040083EA0501084305D0101BE9
:10080000AB4106D20122002306E000224FF0004354
:1008100002E06FF0010253101AEB06004CEB085196
:1008200010EB0A0041EB0B01BDE8F04D00F079B888
:10083000C1F30A52C1F3130140F2FF3341F48011B6
:100840009A4202DA00200146704740F233439A424E
:10085000A2F2334202DC524200F041B800F030B85C
:1008600030B5041E71F1000404DB4FF00044404237
:1008700064EB0101141E73F1000405DB1C464FF00C
:100880000043524263EB0403994208BF904230BDDB
:100890001CB509480090094801900546009C06E0F7
:1008A000E06840F0010394E8070098471034AC4238
:1008B000F6D3FFF71FFC0000C4480008E448000816
:1008C000202A04DB203A00FA02F100207047914010
:1008D000C2F1200320FA03F3194390407047202A05
:1008E00004DB203A21FA02F00021704721FA02F3DA
:1008F000D040C2F120029140084319467047202A97
:1009000006DBCB17203A41FA02F043EAE07306E037
:1009100041FA02F3D040C2F1200291400843194647
:10092000704710B5141E73F1000408DA401C41F141
:10093000000192185B411A4301D120F0010010BD63
:100940002DE9F04D92469B4611B1B1FA81F202E0D9
:10095000B0FA80F220329046FFF7B2FF04460F460D
:1009600040EA0A0041EA0B0153465A46084313D0B5
:10097000114653EA010019D0C8F140025046FFF772
:10098000AEFF05460E46504659464246FFF798FFD1
:10099000084305D0012004E020463946BDE8F08D2B
:1009A0000020054346EAE0762C4337430A98630566
:1009B000E40AA0EB08000022FD0A44EA47540A308A
:1009C00002D500200146E9E7010510196941DDE97A
:1009D000084500196941BDE8F04DA2E740F2201238
:1009E000C2F20002116841B10A4609690029FBD12F
:1009F000117910610131426101E01060012140F282
:100A00002412C2F2000213780171581C1070704752
:100A100040F22012C2F20002116840F20800C2F255
:100A2000000041B10A4609690029FBD11179106122
:100A30000131426101E01060012140F22412C2F252
:100A4000000213780171581C10707047FEE7000017
:100A500040F22000C2F20000FFF7C0BF7047000064
:100A6000002808BF704710B54EF2100141F6401C37
:100A7000CEF20001C0F2010C4FF0000E052204235B
:100A8000C1F804C0C1F808E00A6000BF0C68E403C4
:100A9000FCD501380B60F3D1BDE810407047000071
:100AA0002DE9F04FA9B000F095FE00F031FB40F2C7
:100AB00038050024C2F2000505E000BFE0B20228BC
:100AC0004FF0000416D0285D00F054FE10B1E0B2E3
:100AD00028B90FE00134032CF5D1032050B10024D4
:100AE000285D00F047FE0028E8D10134032CF7D13F
:100AF0000320E4E70FF2F050416806918168059108
:100B0000C16804910169406903910290DFF8D8053A
:100B100040F24C041F900698C2F200042090059801
:100B200002992190049824912290039823902068A0
:100B3000FFF702FBFFF7F6FA48F21F56C5F2EB1675
:100B400080FB0612910901EBD2714FF0C80901FB3D
:100B5000190144F2B44744F2AC4A0022FA314FF092
:100B60003F08C0F60007C0F6000A2060ADF8641028
:100B7000ADF866801A971D92CDE91BA2FFF7DCFA4B
:100B8000FFF7D0FA00EBD07121F00101411A89B2D0
:100B90002060002918BF01218DF87810FFF7CCFAEA
:100BA000FFF7C0FA80FB0612910901EBD27101FB3D
:100BB00019014FF0000901F5C8712060ADF84C1023
:100BC000ADF84E80CDE9147ACDE91699FFF7B4FA65
:100BD000FFF7A8FA00EBD07121F001012060401A64
:100BE00081B2002918BF0121BDF87C00BDF8646006
:100BF000089000B201300A90BDF87E004FF0000866
:100C000010909DF890000C910B909DF878008DF855
:100C100060101190BDF84C001290002007900E90CB
:100C2000099014E01298841E30B221B2401A00F1EB
:100C30006302642A2246A0F1010138BF32466429CA
:100C400038BF2246129238BF064401F083FE01F0FD
:100C500067FA0024285D00F08DFD88B90134032C6B
:100C6000F8D1032078B95FFA88F8B8F1010F98BF7E
:100C70004FF00108DDF840C00A9FDDF830E016E0D3
:100C8000E0B20028EFD00024285D00F073FD28B901
:100C90000134032CF8D1032001E000BFE0B2DDF8FD
:100CA00040C00A9FDDF830E0022800F0E981CDF86D
:100CB00034805FFA88F80FFA86FBB8F1050F4FF021
:100CC00015000F9638BFC8F11A00584514DB5F4570
:100CD00012DA119A19ABD2B203EB82035B68002AD5
:100CE0005B784FF046020FFA8CF108BF44221731AF
:100CF000D21A914280F22E81119919AAC9B202EB3F
:100D000081014C6821785944814210DCB9420EDDE2
:100D1000119B62781B060FFA8CF14FF0460301F12C
:100D2000170108BF44239A1A914280F21381129945
:100D30000FFA81FA504514DB574512DA5FFA8EF24A
:100D400013AB03EB82035B68002A5B784FF046022B
:100D50000FFA8CF108BF44221731D21A914280F267
:100D6000F9805FFA8EF113AA02EB81014E683178A7
:100D70005144814210DCB9420EDD71785FEA0E62A7
:100D80000FFA8CF04FF0460200F1170008BF442222
:100D9000511A884280F2DE800E984CF6CD41013027
:100DA0000E9080B248430DF1940944F2E571820C33
:100DB0004846C0F60001099202F0ECFA4846FFF7F7
:100DC000E7F97F2181EAC00044F23C43C0B203212D
:100DD0004A464FF00009C0F60003CDF8009001F03C
:100DE000D9FA0D9908060FD044F28440C0F60000ED
:100DF000404410F8010C0131C0F12803C8B2262884
:100E000088BF002101E000BF109B8846080601D082
:100E100002200FE00798092803D9002007900B98BB
:100E200008E0032800F101004FF0000188BF012114
:100E3000079008460B90C0B21FA901EB80004268E2
:100E400008981093C0B2D9B2002301F095F9207828
:100E5000C0F17F01594508DBC0F13F010F982246E0
:100E6000C0B2C9B2002301F087F93078C0F17F0128
:100E7000514508DBC0F13F011298C9B2C0B23246F9
:100E8000002301F079F900203F217F223F23CDF894
:100E9000009001F07FF9BBF1FF3F07DD0F9E023E9E
:100EA000BAF1FF3F3FF7BEAE2BE000BF40F24C046B
:100EB000C2F200042068FFF73FF9FFF733F948F268
:100EC0001F51C5F2EB1180FB0112911101EBD271A0
:100ED000C82201FB1201206001F1FA06FFF72CF98C
:100EE000FFF720F900EBD07121F001012060401ADA
:100EF00080B2002818BF01201190BAF1FF3F3FF7E0
:100F000091AE40F24C07C2F200073868FFF714F9BF
:100F1000FFF708F948F21F51C5F2EB1180FB0112EF
:100F2000911101EBD271C82201FB1201386001F569
:100F3000FA74FFF701F9FFF7F5F800EBD07121F033
:100F400001013860401A80B2002818BF01200C90BF
:100F50006AE600BF11980F9E8DF878001298239AC8
:100F6000ADF84C0003208DF8900008985FFA8CF1E2
:100F7000C0B20023ADF864608DF860E0ADF87EC0CB
:100F800001F0FAF89DF8780019A901EB8000426899
:100F90001078C0F17F01594506DBC0F13F01F0B286
:100FA000C9B2002301F0E8F89DF8600013A901EB35
:100FB00080004268BDF94C10107844F23C48C0F102
:100FC0007F0340F228178B4225AC4FF07F06C0F616
:100FD0000008C2F2000707DB89B2C0F13F03C8B2C4
:100FE000D9B2002301F0C8F800203F217F223F231F
:100FF000CDF8009001F0CEF8099938688AB2904295
:101000000CD220463EA13A6002F0C4F92046FFF718
:10101000BFF886EAC000C0B20A210DE044F2E571D3
:101020002046C0F6000102F0B5F92046FFF7B0F8FF
:1010300086EAC000C0B2032122464346CDF80090A4
:1010400001F0A8F97220ADF89C0044F62070C6F2B9
:101050007650269046F24710C6F26D5025902046F5
:10106000FFF796F886EAC000C0B228212246434620
:10107000CDF8009001F08EF901F06CFC0FE000BF9C
:101080001198ADF864608DF8780012988DF860E0E2
:10109000ADF84C000B98ADF87EC08DF890000024A0
:1010A00005E000BFE0B202284FF0000418D0285D30
:1010B00000F060FB10B1E0B238B927E50134032C31
:1010C000F5D1032000283FF421AD0024285D00F075
:1010D00051FB0028E6D10134032CF7D10320E2E7CD
:1010E00029B0BDE8F08F00BF0A0028003C3E000890
:1010F0002C3E0008443E0008343E0008000000007A
:101100004869676853636F72653A256400000000A0
:101110002DE9F04782B044F23C4543F6446900268D
:101120000FF29008C0F60005C0F600090FF2940A0D
:10113000002700BF022001F0F9FB00F0F1FFFCB234
:10114000402020212246002300F024FF002002211D
:10115000022201F045F9012001F0E8FB00F0E0FF78
:101160000720082142462B46009601F013F90A2079
:1011700028214A46002300F0FFFF2F202B21524652
:101180002B46009601F006F901200221002201F011
:1011900027F900200121012201F022F9002001F0AD
:1011A000C5FB01F0D7FB4E2C07F10207C2D302B0FA
:1011B000BDE8F08744696E6F736175722047616D99
:1011C00065000000537461727400000070470000F5
:1011D0007047000070B50A20FFF742FC4FF4006032
:1011E00000F02CF8012818BF70BD4FF4006000F02B
:1011F0001FF840F250050024C2F2000503E000BFD2
:101200000C34242C12D02E19B188B1F5006FF7D10F
:10121000285900F039F9F179002801F0FC0202F1B7
:10122000020208BF41F00102F271E9E770BD00005F
:1012300040F21441C4F201010860704740F20041DD
:10124000C4F201010A6849690240084018BF012040
:10125000002A18BF01221040704700008179002940
:1012600040F20041C4F201011FD002680B689343B1
:101270000B604B6893434B60037943EA010CDCF845
:1012800000301A43CCF8002002688B6893438B60CF
:10129000CB689343CB60407910280ED18868104307
:1012A0008860C8681043C8607047027900681143BD
:1012B0000A6822EA00000860704708430168114389
:1012C0000160704780B540F20040C4F2000001F0B8
:1012D000AFFD80BD70B58AB00420012101F0D2FBC2
:1012E0000220012101F0C2FB8020C4F60300099016
:1012F00040F600004021C4F20100C4F603010024BE
:1013000006AD0890CDE90601291951F8040B00F04B
:101310005BF80834102CF7D140F20044002663201B
:10132000C4F20004CDE9036003A92046ADF81460BF
:1013300001F020FF0DF10205284601F0CBFEADF8CB
:1013400002600F2620462946ADF80A6001F072FDC2
:101350000420ADF8020020462946ADF80A6001F0ED
:1013600069FD204603210022002301F049FD2046AB
:10137000012101F03BFD0AB070BD000040F23C00CD
:10138000C2F2000000F0C0BD40F20040C4F2000014
:10139000002101F0EDBE000010B50C22082402EA85
:1013A000810201F0FC01C4F201044FF00F0C51F86E
:1013B00004E00CFA02F32EEA03030B510B599040A0
:1013C0001843085110BD0000CA7802F00F0CD30674
:1013D00044BF8B784CEA030C2DE9F04709880B06D3
:1013E00025D082465AF8144B00F1100E00254FF01C
:1013F00001094FF00F08002706E000BF1E6001370B
:10140000082F05F1040511D009FA07F60E42F6D0AF
:1014100008FA05F324EA03030CFA05F41C43282A0E
:101420005346EBD0482AEAD17346E7E70460B1F5AA
:10143000807F38BFBDE8F087436800F1100E00F1EF
:10144000140900254FF4807A4FF00F08002705E0BB
:1014500034600137082F05F1040512D00AFA07F4A9
:1014600004EA0106A642F4D108FA05F6B3430CFAE1
:1014700005F63343282A4E46EAD0482AE9D1764673
:10148000E6E74360BDE8F0878068084018BF0120A8
:1014900070470000FEE70000828A008B60F317426D
:1014A00002EA0100401AB0FA80F0400970470000DB
:1014B0000288002918BF012122F001021144018095
:1014C000704700000288002918BF012122F48072B1
:1014D00042EA0121018070470288002918BF0121DA
:1014E00022F4007242EA41210180704770B586B053
:1014F000044680880D4620F03F0601A801F0CEFA90
:1015000003994DF68360C4F21B30A1FB000346EA49
:101510009340A080208820F0010020802A6848F2B3
:10152000A060C0F2010082424FEA934008D8520006
:10153000B1FBF2F14FF6FC72114208BF042124E026
:10154000EB884BF6FF76B34204D102EB4202B1FBCB
:10155000F2F105E019235A43B1FBF2F141F4804165
:101560000A466FF31F32B2FA82F25209114348F26F
:101570000002CFF6FF7211434FF49672504348F6C3
:101580003812C0F24102A0FB022001302084A18366
:1015900020884FF6F53140F00100208020886A89CC
:1015A0000840A988084310432080A8892989084356
:1015B000208106B070BD000001F0FE01002A18BFB6
:1015C0000122114401827047018270472DE9F04FDA
:1015D00083B08346006802914DF6EF0A012601218F
:1015E0009146CFF6FF7AC0F20306FFF76BFFDBF8F8
:1015F0000040554620463146FFF74EFF012815D0E2
:101600000135F7D3074644F6650044F6290144F650
:101610008A02C0F60000C0F60001C0F600020D23E9
:10162000009601F0A7FE012F40F08B80DBF8000050
:101630009BF8041080260022C0F20706FFF7BCFFCB
:10164000DBF80040B71CD04620463946FFF724FFA0
:10165000012815D018F10108F6D3054644F66500B7
:1016600044F6290144F68A02C0F60000C0F60001E3
:10167000C0F600020D23009701F07CFE012D60D121
:10168000B9F101082CD04FF0000903E009F101097C
:10169000C14527D00299DBF8000011F80910FFF7C7
:1016A00093FFDBF80040574620463146FFF7F4FE33
:1016B0000128EBD00137F7D3054644F6650044F620
:1016C000290144F68A02C0F60000C0F60001C0F607
:1016D00000020D23009601F04DFE012DD6D030E022
:1016E0004FF000090299DBF8000011F80910FFF72C
:1016F0006BFFDBF80040351D20462946FFF7CCFE86
:10170000012815D01AF1010AF6D3064644F6650001
:1017100044F6290144F68A02C0F60000C0F6000132
:10172000C0F600020D23009501F024FE012E08D121
:10173000DBF800000121FFF7CFFE002003B0BDE879
:10174000F08F44F63A0044F62901C0F60000C0F6D6
:10175000000104A2302301F00DFE4FF0FF3003B072
:10176000BDE8F08F4932635F5772697465446174F4
:10177000610000002DE9F04140F2500804460025C8
:10178000C2F20008002702E00C35242D1ED008EB21
:101790000506307A012811D1B079A0420ED1FFF7A9
:1017A00091FD71890C39884208DBFFF78BFD718947
:1017B0000C31884202DCFFF7E7FD0127B079A04237
:1017C000E2D1F07900F001000743DDE7F8B2BDE8AF
:1017D000F081000040F25000C2F200000538032101
:1017E000002200BF013900F80C2FFBD17047000028
:1017F00080B586B00420012101F044F901200121C7
:1018000001F040F940F60000C4F60300059040F6F0
:10181000000004A9C4F2010004310490FFF7D4FDD4
:1018200000200B21FFF7B8FD4FF4883003904FF4F0
:101830000060029002A8FFF711FD40F22820C0F2DC
:10184000021001904FF4A06000F09AFB01A800F094
:1018500067FB06B080BD000040F27400C2F20000D9
:1018600000F052BBB0B588B04FF48000012101F008
:10187000FDF80820012101F005F940F60000C1F64D
:101880000340079040F6004040F20041C4F20100DE
:10189000C1F60341002404AD0690CDE9040100BF68
:1018A000291951F8040BFFF78FFD0834102CF7D1DC
:1018B0004FF4804003904FF0806002900020CBF600
:1018C000FF70019041F6802045F60004C0F206004A
:1018D000C4F20004009069462046FFF707FE204648
:1018E0000121FFF7E5FD08B0B0BD000040F2840023
:1018F000C2F2000000F008BBA2B040F2F80440F2CF
:10190000E800C2F20004C2F20000A04209D840F28E
:10191000E805C2F2000500BF55F8040B8047A54258
:10192000FAD940F22010C2F20000006840F200082C
:10193000D0F810B012A800F1040A0220C0F2010091
:1019400013900620ADF8500044F26840C0F6000045
:1019500044780025C4F28228C4F17F00CDF848B055
:10196000CDE91555CDE91755CDE91955CDE91B85BB
:101970001D951E95FEF721FD07461F9040F224108D
:10198000C2F20000067815982097109016988DF8EE
:101990008460119017980B9018980F901A980990DE
:1019A00019980A90C4F17A00FEF707FD029044F2FC
:1019B0004440C0F600000078CDE90C7805907F2007
:1019C000B0FBF6F0CDF80CA004900020CDE9067035
:1019D00008906CE00B9C0F982146FEF740FC00211C
:1019E000C4F22011FEF773FC01462046FEF7E5FB2A
:1019F0000021C4F23C210646FEF7DFFBFEF7E6FCC1
:101A0000002104463046C4F24821FEF7D6FBFEF71B
:101A1000DDFC074620460A213A460A23009500F0DD
:101A2000B9FB20460A2122460D23009500F0B2FBA7
:101A300020462C213A462C23009500F0ABFB204693
:101A40002C2122462923009500F0A4FB00213046DA
:101A5000C4F2A221FEF7B1FBFEF7B8FC0021044658
:101A60003046C4F29C210B96FEF7A7FBFEF7AEFCB6
:101A7000074620460A213A460A23009500F08AFBD1
:101A800020460A2122460D23009500F083FB2046C4
:101A90002C213A462C23009500F07CFB20462C217B
:101AA00022462923009500F075FB00F053FFDDF876
:101AB000449000243AF81400FFF75CFE18B9013492
:101AC000032CF7D10324E0B20228CDF838B00FD0B0
:101AD000012819D088B9DBF8144040F2000A002C24
:101AE00008BF5C4601274FF0000BC4F2202A17E024
:101AF000DBF80C008047FFF76DFE5C464FF0000BF3
:101B000000274FF0000A0BE0DBF8104040F2000A1B
:101B1000002C08BF5C4600274FF0010BCCF2202AB6
:101B2000109E48463146FEF79AFB0021C4F2201170
:101B3000FEF7CDFB01463046FEF73FFB2669BBF1C1
:101B4000000F109000D0A6B160690899B0FA80F03B
:101B50004009384040F20000C4F2582008BF014656
:101B600008915146484618BF4FF00041FEF725FB4B
:101B70008146606960B300214846CCF22421FEF71B
:101B80000EFC0446002848464FF0000118BF01240F
:101B9000FEF7E9FB5546BA460746002818BF01275D
:101BA000DDF83C8000214046FEF7DDFB002818BF31
:101BB000012038405746AA4600254246204018BF1B
:101BC0004FF00009CDF8449018BF002205E000BF97
:101BD0000022CDF84490CCF22022DDF81C80EEB13A
:101BE0000E980069B0FA80F0400917EA000118BFAA
:101BF00000220F9218BF51461198FEF730FB11904A
:101C000097B1DDF838B0DDF80CA0DBF81400F8B1BE
:101C100040F20008C4F2A00812E000BF0020C4F2A5
:101C200020200F90002FECD1BBF1000FDDF838B071
:101C30000CD0DBF81000DDF80CA048B102990C9133
:101C40000021C4F2822183460D9101E0DDF80CA051
:101C500000F066FA002600BFF4B2204630210922C7
:101C60000223009500F068FA702C06F10F06F3D3FA
:101C7000DDE909042146FEF7F2FA0027C4F2201735
:101C80003946FEF724FB01462046FEF796FA9BF8FC
:101C90000410044604984843FEF78FFB0990204641
:101CA000FEF794FB0246002000210323009500F07C
:101CB00043FA20464FF07E510A94FEF77EFAFEF773
:101CC00085FB0121002200F049FB0D9C089821466C
:101CD000FEF7C5FA3946FEF7FAFA01462046FEF746
:101CE0006CFADBF8004081462046FEF751FA059970
:101CF000CDF834904843C0F17F064846FEF766FBB6
:101D000044F244430146C6F347002246C0F60003AE
:101D1000009500F03FFB40463946FEF7D8FA0146F1
:101D20004046FEF79CFA0C9E044606983146FEF7A4
:101D300096FA3946FEF7CBFA01463046FEF73DFAF1
:101D4000064620460794FEF741FB44F24C423421FC
:101D5000C0F60002002300F00FFA30460C96FEF7A2
:101D600035FB44F268423421C0F60002002300F043
:101D700003FA40F22010C2F2000006686FF0270755
:101D8000002E3FF427AE10980021C4F21011FEF788
:101D900014FA804604E000BF3669002E3FF41AAE04
:101DA000307900EB800007EBC000FEF706FB014630
:101DB0004046FEF702FA0021C4F2FE210446FEF777
:101DC000EEFA0028E8D100212046CCF2F011FEF70F
:101DD000CAFA0028E0D12046FEF7F8FAB2680C21D2
:101DE000002300F0C9F9D7E7FEE700002DE9F04F26
:101DF00081B040F2181440F2FC00C2F20004C2F2BA
:101E00000000A04209D840F2FC05C2F2000500BF64
:101E100055F8040B8047A542FAD940F22C10C2F2C3
:101E20000000C768DFB340F63C5544F6290A44F683
:101E30002B0BC2F200050FF26C08C0F6000AC0F6C8
:101E4000000B0FF290092EA40AE000BF386821466B
:101E5000FEF7A5F9002804BF01202870FF68F7B13C
:101E60002878012807D13E68404651465A462C231F
:101E7000009601F07FFA7868002818BF8047B8689C
:101E8000002818BF804728780128DFD13E684846DF
:101E900051465A463723009601F06CFAD6E701B056
:101EA000BDE8F08F1B5B33326D5B494E464F5D3AA8
:101EB000257325732025643A204D6F64756C652069
:101EC000257320496E6974207374617274210D0A40
:101ED000000000001B5B33326D5B494E464F5D3A9C
:101EE000257325732025643A204D6F64756C652039
:101EF000257320496E697420656E64210D0A000007
:101F000053657269616C000040F22C11C2F200014D
:101F10000A46C9680029FBD1D060704770470000AD
:101F200010B5C17800294EF20011CEF200011AD08E
:101F30004EF60C52CEF200021268072323EA122258
:101F40000F23C2F1040C23FA02F24378847890F84C
:101F500000E003FA0CF322401A43120101EB0E03D6
:101F600083F8002300E080310078012300F01F0295
:101F700003FA02F2C0F3421041F8202010BD000025
:101F800040F080604EF60C5140F0FD70CEF2000142
:101F9000086070472DE9F04F85B083460320A0EB21
:101FA00042070020CDE900130490CDF808B017E0F7
:101FB0000498039F013039B2062306B203EB800375
:101FC000801AB1F1FF3FC8BF013A12B24FF00A01C7
:101FD000C8BF01EB800396421F44049600F39D8026
:101FE000ABEB020402EB0B0520B2854203974BDA00
:101FF000DDF808B00498ABEB000400EB0B0E20B248
:102000008645D5DB009901235018C6B200F00700C1
:1020100003FA00F8881AC7B200F0070003FA00F9C3
:1020200001984FEAD60A4FEAD70C002818BF6FEA8A
:10203000080818BF6FEA090904E000BF013420B2A4
:102040008645B5DBE1B23F2E04F080000BD850B9D5
:1020500040F29403C2F200031B6803EBCA135D5CF9
:1020600045EA08055D543F2FE8D80028E6D140F244
:102070009400C2F20000006800EBCC10435C43EA1D
:1020800009034354DAE700BF0099049B012758185D
:10209000C6B200F0070007FA00FBC81A5FFA80F822
:1020A00000F0070007FA00F901984FEAD60A4FEA54
:1020B000D803002818BF6FEA0B0B18BF6FEA090995
:1020C00004E000BF013420B2854291DB5FFA84FC5A
:1020D0003F2E04F080010DD861B940F29400C2F2A5
:1020E0000000006800EBCA1010F80CE04EEA0B0785
:1020F00000F80C70B8F13F0FE4D80029E2D140F2AB
:102100009400C2F20000006800EBC31010F80C103D
:1021100041EA090100F80C10D4E705B0BDE8F08FE2
:1021200080B540F29400C2F2000000684FF4806174
:10213000FEF723F880BD0000002B08BF70472DE993
:10214000F04381B00646DDF8208010441C468946E5
:102150000025C7B205EB0900C1B230463A460B462E
:10216000CDF8008000F016F80135E8B2A042F1D3B6
:1021700001B0BDE8F043704710B582B0D2F804E07A
:102180009C46137854787246CDE9004C00F068FB09
:1021900002B010BD2DE9F04FDDF824C090422CD1E3
:1021A0001A4640F29406994288BF0A4638BF0B4649
:1021B00041B24FF0010EC2F20006BCF1000F18BF91
:1021C0004FF0FF3C05E000BF0133DCB2944200F267
:1021D00093800029F8D4DDB23F2DF5D8376803F09D
:1021E000F80503F0070407EB05150EFA04F42F5C5D
:1021F00084EA0C043C432C54E6E7994228D19042EF
:10220000134688BF034638BF024601F00700012786
:10221000BCF1000F40F2940C07FA00F04FEAD1072E
:10222000C2F2000C18BFC04304E000BF0132D6B2B6
:102230009E4261D83F29F9D855B2002DF6D4DCF87A
:102240000050D4B205EBC7152E5D06432E55EDE7C1
:10225000A2EB000EA3EB0109BEF1010F4FF0010B41
:102260004FF0010AB8BF4FF0FF3BB9F1010FB8BF03
:102270004FF0FF3ABEF1000F48BFCEF1000EB9F1AA
:10228000000F48BFC9F10009CE4533D9904208BFBD
:10229000BDE8F08F0023BCF1000F18BF4FF0FF3CEA
:1022A0000EE000BF1BB24B441C045844BEEBE43F9D
:1022B00004B21DB2DCBF5144A5EB0E0394421BD007
:1022C0000706EFD4CFB23F2FECD801F00705012469
:1022D00004FA05F540F29404C2F200042668C1F342
:1022E000C408C7B206EBC816F45D85EA0C052C439A
:1022F000F455D7E7994201D1BDE8F08F0022BCF137
:10230000000F18BF4FF0FF3C0EE000BF12B2724446
:1023100014045144B9EBE43F0CB215B2DCBF58448D
:10232000A5EB09029C42E7D00406EFD4CCB23F2CC7
:10233000ECD801F00705012606FA05F540F29406EF
:10234000C2F200063668C1F3C408C4B206EBC81670
:10235000375D85EA0C053D433555D7E743B2002B81
:1023600017D43F2988BF7047002A40F29402C2F276
:102370000002126801F0070C01F0F80102EB0111F4
:102380004FF001030A5C03FA0CF318BFDB431A4356
:102390000A5470472DE9F04383B01C461378E3B12B
:1023A000DDF8288089460646571E00BF6578A3F1F0
:1023B000200123786068EA1DD208594301FB02021C
:1023C000F0B24946CDE9005800F04AFA2078BB78CF
:1023D0000644002B07F10107E8D103B0BDE8F08304
:1023E00010B540F23C1CC2F2000C40F23C5E0128E9
:1023F0006346C2F2000E08BF734640F63C14022842
:10240000C2F2000408BF2346012908BFF4464FF07A
:10241000000E022908BFA4460AE000BF0EF1010E1B
:10242000BEF1080F0CF1800C03F1800308BF10BD52
:10243000002107E01CF801005C5C20435854013186
:102440008029EBD0022A09D0012AF3D0002AF6D144
:102450001CF80140585C2040F0E700BF1CF8010068
:102460005C5C24EA0000E9E7B0B588B01420FEF710
:10247000F7FA4FF40010012100F0F8FA08200121CA
:1024800000F000FB8020C1F60340079040F60040BA
:102490004021C4F20100C1F60341002404AD0690BE
:1024A000CDE90401291951F8040BFEF78DFF08341A
:1024B000102CF7D14FF0806002900020CBF6FF7017
:1024C000019041F6802045F20044C0F20600C4F2BB
:1024D00000044FF480450090694620460395FFF7BD
:1024E00005F820460121FEF7E3FF40F2A8044FF46F
:1024F0002E40C2F20004ADF8100004A920460222CA
:10250000FFF764F84FF45540ADF8100004A92046D9
:102510000222FFF75BF84FF40040ADF8100004A969
:1025200020460222FFF752F84FF42840ADF8100081
:1025300004A920460222FFF749F84FF47C50ADF879
:10254000100004A920460222FFF740F84FF4534040
:10255000ADF8100004A920460222FFF737F800204A
:10256000ADF8100004A920460222FFF72FF804A9B5
:1025700020460222ADF81050FFF728F84FF4214012
:10258000ADF8100004A920460222FFF71FF84FF40F
:102590004840ADF8100004A920460222FFF716F8C3
:1025A0004FF45A40ADF8100004A920460222FFF76C
:1025B0000DF84FF49050ADF8100004A92046022207
:1025C000FFF704F84FF40140ADF8100004A92046CD
:1025D0000222FEF7FBFF4FF44F40ADF8100004A9B4
:1025E00020460222FEF7F2FF4FF45940ADF81000EA
:1025F00004A920460222FEF7E9FF4FF47140ADF82E
:10260000100004A920460222FEF7E0FF4FF45B40D1
:10261000ADF8100004A920460222FEF7D7FF4FF4C0
:102620004050ADF8100004A920460222FEF7CEFF6C
:102630004FF42440ADF8100004A920460222FEF712
:10264000C5FF4FF42640ADF8100004A92046022231
:10265000FEF7BCFF4FF40D40ADF8100004A9204672
:102660000222FEF7B3FF4FF4A050ADF8100004A90A
:1026700020460222FEF7AAFF4FF42F40ADF81000CB
:1026800004A920460222FEF7A1FF00F063F908B07A
:10269000B0BD000040F29800C2F20000FFF734BC69
:1026A0002DE9F04744B240F2940C4FEAD10E01F00C
:1026B0000701002CC2F2000C22D402FA01F5002B13
:1026C00018BFED43DCF80070C1F1080A4FF0FF08B5
:1026D00007EBCE1728FA0AF817F8009045EA080623
:1026E00006EA09063E54DCF800706FF0FF0607EBBF
:1026F000CE1746FA0AF83E5C05EA080535433D5414
:10270000002C23D4002908BFBDE8F0874E1EC1F17C
:10271000080122FA01F1002B18BFC943F2B2DCF81C
:1027200000600EF101074FF4FF7303FA02F206EBAB
:10273000C7131E5C41EA02052E401E54DCF800302F
:10274000914303EBC7131F5C39431954BDE8F0876D
:102750002DE9F04F01F0070CDDF824E06344092B6C
:102760004FEAD10144B248D3002C27D440F2940957
:1027700002FA0CF5C2F20009BEF1000F18BFED43DA
:10278000D9F80070CCF1080B4FF0FF0807EBC11728
:1027900028FA0BF817F800A045EA080606EA0A0628
:1027A0003E54D9F800706FF0FF0607EBC11746FAE8
:1027B0000BF83E5C05EA080535433D54002C4CD42B
:1027C000CCF1080740F29406FA40C2F20006F73353
:1027D000BEF1000F18BFD24335680131DBB24FF4B0
:1027E000FF7707FA03F305EBC1173D5C42EA0304E8
:1027F00025403D5437689A4329E0002C48BFBDE886
:10280000F08F013BDBB24FF4FF7702FA0CF207FACC
:1028100003F3CCF1080740F2940CC2F2000CBEF1B5
:10282000000F18BFD243DCF80040FF26FE4004EB47
:10283000C1141643255C1E432E4026546FF0FF063C
:1028400046FA07F727EA0303DCF800701A4007EBA3
:10285000C1110844017811430170BDE8F08F0000F8
:102860002DE9F04F87B0059010981F460E46C1081D
:1028700000F0070003920291049063B3DDF808B002
:102880004FF00008BBF1010F98BF4FF0010B039808
:10289000069007E0069808F10108B84500F101002C
:1028A000069018D01098119D0828F3D30598DDF8EC
:1028B000189008EB000A002406EBC40099F80020E9
:1028C000C1B25FFA8AF02B46FFF7EAFE0134A34556
:1028D000B944F1D1DEE7DDF810A0DDF81480DDF8B1
:1028E0004490BAF1000F18BF002F1BD01099029826
:1028F00001F0F801039A7843314414187F424FF0F5
:10290000FF30CEB2451C2044427805EB0800C0B22F
:1029100031465346CDF80090FFF71AFF7819013081
:102920002846EFD107B0BDE8F08F0000022888BF2D
:10293000704740B204A151F8200040F29401C2F265
:1029400000010860704700BF3C0100203C050020EA
:102950003C0900202DE9F04FA1B00DF1030440F235
:10296000A80640F29409651C4FF0000BC2F2000665
:10297000C2F200094FF0400A00274FF0000800BFE4
:10298000A8F150008DF804003046214602228DF84F
:1029900003B0FEF71BFE4FF48050ADF80300304645
:1029A00021460222FEF712FE304621460222ADF8F1
:1029B00003B0FEF70BFED9F800008022C1192846AB
:1029C0008DF803A0FDF7C0FB304621468122FEF7BB
:1029D000FDFD08F10108B8F1080F07F18007CFD11C
:1029E00021B0BDE8F08F0000B0B588B00120012112
:1029F00000F03CF80420012100F044F80220C1F668
:102A00000300079040F60000C4F2010007A9FEF79A
:102A1000DBFC4FF0804000F063FB44F61F60CDF814
:102A200016004720CDF8120000250DF112014FF0DD
:102A300080408DF81A5000F09DFB0DF102042046F5
:102A400000F08EFB6020C0F20100CDF802004FF0D4
:102A500080402146029500F049FB4FF08040012163
:102A600000F0C4F908B0B0BD70470000002941F281
:102A70001C01C4F202010A680CBF22EA00001043E4
:102A800008607047002941F21801C4F202010A6887
:102A90000CBF22EA000010430860704710B541F2F5
:102AA0000404C4F20204226802F00C02082A41F273
:102AB0000022C0F27A0212D12368D4F800C0C3F316
:102AC000834E5FEACC330EF1020C02D523689B03E0
:102AD00003D540F60012C0F23D020CFB02F2026088
:102AE000226843F69C43C2F30312C0F600039A5CCB
:102AF0000168D14041602268C2F302229A5C21FA47
:102B000002F282602268C2F3C2229A5C43F69843C2
:102B1000D140C1602268C0F60003C2F381329A5CE2
:102B2000B1FBF2F1016110BD704700007047000079
:102B300070470000B0B588B04FF480400121FFF726
:102B4000A1FF04200121FFF79DFF40F20040C4F6E1
:102B50000300079040F6000440F20020C4F2010494
:102B6000C1F60300CDE9044004A800F10C05011DE5
:102B700020460694FEF728FC20462946FEF724FC52
:102B800000204FF400210390CDE901014FF4E13022
:102B900004F5405400906946204600F051FB204661
:102BA000012100F03DFB08B0B0BD000040F2B000D4
:102BB000C2F20000FFF7A8B98AB04FF48170ADF8F7
:102BC000060000204FF00008FFF7B0FEFFF7A8FA5C
:102BD00044F2444740F2000A0DF106090FF29C0B43
:102BE00002AEC0F60007C4F2343A00251AE000BF76
:102BF0002C46204600F056F82046FDF700FC024621
:102C00000B463046594600F0C5FBFFF789FA2820ED
:102C1000202132463B46CDF80080FFF7BBFBFFF793
:102C200099FE2546002400BF19F80400FEF7A2FD16
:102C300018B90134022CF7D10224E0B201280DD0DA
:102C40000028D5D128465146FDF79BFB0028544665
:102C5000CFD100212846C4F290110AE02846002175
:102C60000024FDF772FB0028C3D100212846CCF2D6
:102C70009011FDF7A2FA0446BBE700BF416E676CF6
:102C8000653A20252E32660040F2D000C2F20000E4
:102C9000FDF7A4BEFFF7A8BE40F2C000C2F20000DC
:102CA000FFF732B980B50021C4F23431FDF70FFBD4
:102CB0000021C4F2FA41FDF7D8FA0021C4F2FA313A
:102CC000FDF77BFAFDF782FB01464FF08040BDE83F
:102CD000804000F04BBA00007047000082B041F223
:102CE0000400C4F2020050F8041C002241F001016B
:102CF00040F8041C0168CFF6FF021140016050F853
:102D0000041C4FF6FF72CFF6F662114040F8041C27
:102D100050F8041C21F4802140F8041C016821F4BF
:102D2000FE0101604FF41F014160002101910091FB
:102D300050F8041C41F4803140F8041C50F8041C85
:102D400001F400310091019901310191009919B903
:102D50000199B1F5A06FF1D150F8041C890354BF5B
:102D60000021012100910099012936D142F2000190
:102D7000C4F202010A6842F010020A600A6822F0F6
:102D800003020A600A6842F002020A6001680160F8
:102D900001680160016841F480610160016821F40B
:102DA0007C110160016841F4E811016050F8041CD5
:102DB00041F0807140F8041C50F8041C8901FBD5D7
:102DC000016821F003010160016841F00201016026
:102DD000016801F00C010829FAD14EF60850CEF234
:102DE00000004FF00061016002B0704702880029C6
:102DF00018BF012122F00102114401807047000038
:102E0000B0B5B0F808C0B0F818E0058C2CF0070495
:102E100021434FF6FC4404EA0E0425F0220542EA61
:102E2000031204F201142A43018104830284B0BD19
:102E3000808C7047F0B50A88082A29D0042A52D01D
:102E4000002A7BD14B88B1F804C0B1F808E0028CAD
:102E500040F6FF3622F001020284024632F8184F93
:102E6000058CC4F20006B0424FF6FC7600F38F806A
:102E7000B0F1804F00F09E8040F20047C4F200079E
:102E8000B84200F0978040F60007C4F200078EE0D9
:102E90004B88B1F804C0B1F808E0028C40F6FF3767
:102EA00022F480720284024632F81C4F058C6FF4C3
:102EB0004056C4F20007B84206F5145600F38B8062
:102EC000B0F1804F00F0998040F20047C4F2000753
:102ED000B84200F0928040F60007C4F20007B84202
:102EE00000F08B808EE04B88B1F804C0B1F808E0A8
:102EF000028C40F6FF3722F010020284024632F8BC
:102F0000184F058C6FF00306C4F20007B842A6F113
:102F1000AD0600F38880B0F1804F00F0968040F25B
:102F20000047C4F20007B84200F08F8040F6000767
:102F3000C4F20007B84200F088808AE04B88B1F8FC
:102F400004C0B1F808E0028C40F6FF3622F480524B
:102F50000284024632F81C4F058CC4F20006B042CF
:102F600046F6FF5600F38880B0F1804F00F096805F
:102F700040F20047C4F20007B84200F08F8040F6EC
:102F80000007C4F20007B84200F0888089E040F6EC
:102F90000047C4F20007B8420CD042F60047C4F222
:102FA0000107B84206D043F20047C4F20107B84215
:102FB00018BF083E35402B4324F0F3044CEA0E17AB
:102FC00043F00103274307830384C988038B23F05D
:102FD0000C03038379E040F60047C4F20007B842CF
:102FE0000BD043F20047C4F20107B84205D042F6C5
:102FF0000047C4F20107B84204D14CF6FF761B0229
:1030000006F5345635402B4324F0F3044CEA0E17F2
:1030100043F48073274387830384C988838B23F019
:103020000C03838351E040F60047C4F20007B84226
:103030000BD043F20047C4F20107B84205D042F674
:103040000047C4F20107B84203D14FF6FC761B01DA
:103050002D3E35402B4340F6FF452C4044EA0E37C9
:1030600043F0100347EA0C2707830384C988038BC6
:1030700023F44063038327E040F60047C4F20007CF
:10308000B8420BD043F20047C4F20107B84205D062
:1030900042F60047C4F20107B84202D14CF6FF766F
:1030A0001B0335402B4340F6FF454FEA0E372C40BB
:1030B00047EA0C2743F48053274387830384C98856
:1030C000838B23F4406383830902108808431080B4
:1030D000F0BD0000002101220160426001817047C3
:1030E000018921F00701018170470000B0B5028C11
:1030F00022F010020284038C8288B0F818E00C8958
:103100004D88B1F800C02C4343F2004523F0200362
:10311000C4F20105A84243EA041305D042F6004474
:10312000C4F20104A04211D14C896FF0400523F094
:10313000C00305EA04148D88234343EA05138C89F0
:10314000CD8922F440622C4342EA84022EF4E64503
:1031500045EA0C2582800583C98801870384B0BDB8
:103160000021C16081604160016070470187704744
:103170008184704740F6FF33B0F800C0C4F200030A
:1031800098420FDCB0F1804F1ED040F20043C4F2F1
:103190000003984218D040F60003C4F2000398429E
:1031A00012D016E040F60043C4F2000398420BD060
:1031B00043F20043C4F20103984205D042F60043B3
:1031C000C4F20103984204D14B882CF0700243EA08
:1031D000020C41F2004240F48063C4F200029342C8
:1031E00004D0CA882CF4407342EA030CA0F800C053
:1031F0008A8883058285A0F18042A2F5963243EA4F
:1032000092220B88072A038507D8012303FA02F2CA
:1032100012F0E50F1CBF097A0186012181827047F7
:103220008289002918BF012122F4005242EA41316B
:10323000818170470088084018BF01207047000056
:1032400070B586B00446008A0D46C98820F4405007
:1032500008432082A0894EF6F3110840A9882A89E4
:103260006B89084310431843A081A08AA98920F4E0
:103270004070084301AEA0823046FFF70FFC43F6D2
:10328000000106F10800C4F201018C4208BF06F1FA
:103290000C0000681922B4F90C1050432A6801236D
:1032A000B1F1FF3FC8BF022302FA03F1B0FBF1F016
:1032B00048F21F51C5F2EB11A0FB01235A096FF030
:1032C000630302FB0300B4F90C300326B3F1FF3FA4
:1032D000C8BF042600FA06F000F13200A0FB01018D
:1032E0004FF00700C8BF0F2000EA511040EA02105B
:1032F000208106B070BD00006FF35F2181807047B0
:10330000FEE70000B0B543F60005C4F2010504462F
:1033100081B22846FFF7F0FF28464021FFF78AFFD9
:103320000128F9D12046B0BDFEF760FD04A00EA132
:103330000EA20E2300F01EF8FEF7DEFAFCE700BF37
:103340001B5B33326D5B494E464F5D3A25732573E7
:103350002025643A2053797374656D20537461722B
:1033600074210A0D0A000000200000006D61696EE2
:10337000000000000FB4054B10B503A9044A0298E1
:1033800000F0EEF810BC5DF814FB000005330008F7
:10339000040000200FB4084B10B504A902AA03983A
:1033A00000F0DEF8044602A9002000F070FC204680
:1033B00010BC5DF814FB00008F3C000802E008C858
:1033C000121F08C1002AFAD170477047002001E09F
:1033D00001C1121F002AFBD1704700002DE9FF5FD9
:1033E00082B00021DDE90430020DDDF840B0034376
:1033F00018D044F61050A2F2FF324243151411982F
:1034000001281FD0A5EB0B00401C5FEA000A4FF01B
:1034100000064E4FDFF83891B046504615D5CAF138
:10342000000413E0119801244AA3012801D16FEA96
:103430000B010298119AC0E90031C0E9024206B0BE
:10344000BDE8F09FCBF10000DFE704460021404AD1
:10345000491842EB0450CDE9001012E0E00707D014
:1034600032463B4640464946FDF701F980468946CB
:1034700032463B4610461946FDF7F9F806460F4618
:103480006410002CEAD1DDE90401DDE90023BAF182
:10349000000F06DAFDF7EBF842464B46FDF7E7F87A
:1034A00005E0FDF756F942464B46FDF752F9044652
:1034B0000E460022284BFDF7D3F903D84FF0FF301A
:1034C000014607E00022254B20463146FDF728F84B
:1034D000FDF7AEF9102409E0002C0ADB0A220023D4
:1034E000FCF7B6FF039B30321A55641E50EA010206
:1034F000F2D1641C039AC4F111031444119A012AF5
:1035000003D0012208430DD10AE0084304D0002073
:103510004FF0110B119072E7A3EB0B056D1E0DE040
:103520005B4504DD4FF0000205F1010504E003DA1C
:103530004FF00002A5F10105002AECD00298119984
:10354000C0E90231C0E9004579E7000000001440FD
:103550000000F03F300000000000F0430000E03FBA
:103560002DE9FF4F95B09B468946064600250FE2A0
:10357000252877D100242746F84A0121059400E048
:10358000044316F8013F203B01FA03F01042F7D143
:1035900030782A2811D06FF02F033078A0F1300254
:1035A000092A16D8059A44F0020402EB820203EBC2
:1035B00042021044761C0590EFE759F8042B05925F
:1035C000002A03DA504244F40054059044F0020407
:1035D000761C30782E2816D116F8010F44F004041A
:1035E0002A280DD06FF02F023078A0F13003092B7C
:1035F00009D807EB870302EB4303C718761CF3E7F0
:1036000059F8047B761C30786C280FD006DC4C28E7
:1036100017D068280DD06A2814D104E0742810D07F
:103620007A280FD10DE044F400140AE044F4801429
:1036300001E044F440147278824202D104F580140F
:10364000761C761C307866280BD013DC582877D08F
:1036500009DC002875D04528F6D04628F4D0472844
:103660001AD19DE118E0632835D0642879D0652807
:1036700012D195E1702873D008DC6728F1D0692851
:103680006FD06E280DD06F2806D1B5E073282CD0EE
:10369000752875D0782874D05A46179990476D1CB4
:1036A00075E1C4F30250022809D003280DD0D9F8DF
:1036B000001004280DD00D6009F1040967E1D9F864
:1036C0000010EA17C1E90052F6E7D9F800100D80A2
:1036D000F2E70D70F0E719F8041B8DF800100020D8
:1036E0008DF80100EA46012003E059F804AB4FF0E1
:1036F000FF3061074FF0000102D40DE008F1010135
:103700008846B9420FDA8045F8DB1AF8081000291C
:10371000F4D108E008F1010188468142FADB1AF889
:1037200008100029F6D105985B46A0EB0807214652
:103730003846179A00F094FA284400EB080507E091
:103740004DE029E10DE01AF8010B5A461799904710
:10375000B8F10108F7D25B4621463846179A13E1C3
:1037600042E00A220092C4F302524FF0000A022AF9
:1037700008D059F804CB032A4FEAEC710AD00DE0C7
:1037800029E02AE009F1070121F00702F2E802C16D
:10379000914609E00FFA8CFC4FEAEC71042A03D140
:1037A0004FFA8CFC4FEAEC71002907DA0A46002137
:1037B000DCF1000C61EB02012D2202E0220504D5B0
:1037C0002B228DF80420012203E0E20701D0202201
:1037D000F7E7904659E00A2102E010220DE010219F
:1037E0004FF0000A00910BE010224FF0000A44F065
:1037F00004040827009203E008224FF0000A009218
:10380000C4F30252022A05D059F804CB0021032A3E
:1038100008D009E009F1070121F00702F2E802C12E
:10382000914605E01FFA8CFC042A01D10CF0FF0C34
:103830004FF00008220728D5702806D0009B83F09F
:10384000100353EA0A0305D00EE040228DF804204D
:10385000012208E05CEA010206D030228DF8042043
:103860008DF8050002229046009B83F0080353EA7E
:103870000A030AD15CEA010201D1620705D53022B0
:103880008DF804204FF001087F1E582804D034A082
:1038900003900EA802900DE036A0F9E7534660466B
:1038A000009AFCF7D5FD84460398825C0298401E7E
:1038B000029002705CEA0100F0D1029806A9081A91
:1038C00000F1200A600702D524F4803400E00127CB
:1038D000574502DDA7EB0A0000E0002000EB0A01DB
:1038E000009005984144401A0590E00306D45B46D9
:1038F0002146179A059800F0B3F90544002706E021
:1039000001A85A46C05D179990476D1C7F1C47451A
:10391000F6DBE0030CD55B462146179A059800F0CC
:103920009FF9054404E030205A46179990476D1CD2
:103930000099481E00900029F5DC08E002980299E1
:103940005A460078491C0291179990476D1CBAF1AC
:103950000001AAF1010AF1DC65E10000092801007B
:1039600030313233343536373839616263646566F5
:1039700000000000303132333435363738394142B7
:10398000434445460000000000F058F90544761C09
:10399000307800287FF4ECAD19B02846BDE8F08FF0
:1039A000620700D4062709F1070222F0070CFCE8A1
:1039B0000223E14603F000485FEA080C02D00FF250
:1039C000702C0DE05FEA045C02D50FF2682C07E072
:1039D0005FEAC47C02D00FF2602C01E0AFF2700C01
:1039E0004FF0FF3823F00043CDF850C065280CD0CD
:1039F00006DC452809D046281DD047283DD13DE0AA
:103A0000662818D067287ED138E00021112F01DB0D
:103A1000112000E0781CCDE9000106A90EA8FFF7EF
:103A2000DDFCDDE90F010E9A03910021009207F100
:103A3000010A04914DE04FF000400097CDE90110DC
:103A400006A90EA8FFF7CAFCDDE90F0203920E9B40
:103A500011990022DDF80CA00093049211B9791C91
:103A600000EB010AB7EB0A0004D4C0F1FF3007F104
:103A7000010A0490AAEB0700019044E0012F00DA4C
:103A800001270021112F01DD112000E03846CDE98A
:103A9000000106A90EA8FFF7A1FCDDE90F010E9AAF
:103AA0000391002104910092BA4621070CD4039996
:103AB000514500DA8A46BAF1010F05DD009AAAF1F4
:103AC0000101515C302908D0B84202DA10F1040F2C
:103AD00006DA0121CDE9011015E0AAF10101E9E7BB
:103AE000002805DC049901440491AAEB000102E0DE
:103AF000411C514500DD8A460499401A401C019042
:103B00004FF000400290200704D40198504501DB9B
:103B1000CDF8048000208DF84F0002980DF14F077A
:103B2000B0F1004F25D02B200E9002984FF00208E4
:103B300000280CDA404202902D200E9007E00A2166
:103B40000298FCF76FFC3031029007F8011DB8F1C4
:103B50000001A8F10108F2DC02980028EFD1791EDB
:103B60000E980870307800F0200040F0450007F80B
:103B7000020D12A8C01B00F107081498007800B1CC
:103B8000012000EB0A01019801EBE0710598414426
:103B9000401A401E0590E00306D45B462146179A62
:103BA000059800F05DF805441498007818B15A465D
:103BB000179990476D1CE00324D55B462146179A60
:103BC000059800F04DF805441CE00498002807DB38
:103BD000DDE90301884203DD0098405C179901E0AC
:103BE000179930205A469047049805F10105401C6A
:103BF00004900198401E019004D12E205A46179936
:103C000090476D1CBAF10001AAF1010ADDDC05E064
:103C100017F8010B5A46179990476D1CB8F100012F
:103C2000A8F10108F4DC5B462146179A0598ABE63B
:103C30002D0000002B000000200000002DE9F041C5
:103C4000044600251E461746880404D405E039467C
:103C50002020B0476D1C641EF9D52846BDE8F081D0
:103C60002DE9F041044600251E469046C80301D5C3
:103C7000302700E02027880404D505E04146384677
:103C8000B0476D1C641EF9D52846BDE8F0810A686E
:103C9000531C0B60107070470204060800000000FF
:103CA0000102030401020304060708091E1E0000A6
:103CB000B43C0008000000000000000000C0E0E08C
:103CC000F070787870F0E0E0C08000000000000044
:103CD000000080C0E0F0F0F020000F0F1F13008004
:103CE000808080C0F3FFFFFF7070F0F0F0E0C080D4
:103CF0007FFFFFF1C080808080E0E0E0F0783F1F30
:103D00000F070301000000000000838F8F0F0000E9
:103D1000010303070707070301010000000000007B
:103D20000000000000000000030301001E1E000050
:103D3000343D00080000000000000000000000000A
:103D4000000000FEFEFFF3FFFFFFFFFFFFFFFFFF8E
:103D5000FC0000F8F8E08000000080C0E0E0F0F037
:103D6000F8FFFFFFFFFFFF63E20202020000000016
:103D70000007070F3F7F7FFFFFFFFFFFFFFFFFFFF2
:103D80007F7F3F0707000000000000000000C0C068
:103D9000C0C0C0C0C0C0FFFFF7C3C1C1C3FFF0E0D7
:103DA000C0C0C0C0C0C0C0C0C0C0C0C01E1E0000D7
:103DB000B43D0008000000000000000000C0C0E0AA
:103DC000F0F8F878F8F8F0E0E0800000000000007B
:103DD0000000000000000000F0F8FF3F6FC381808A
:103DE000C0E0E0E1C3C3E3F9F8F8F0000000000030
:103DF0000000000000001F3FFFFCF0E1838383818F
:103E0000808187C7E7FFFF7F1F00000000000000E0
:103E10000000000000000001030307070707070771
:103E2000070301010000000000000000151700005A
:103E3000E446000815170000234700081517000086
:103E40006247000815170000A147000800000000A5
:103E5000000000000000000000000000000000F86A
:103E600000000000000000333000000000100C06CD
:103E7000100C0600000000000000000040C0784068
:103E8000C0784000043F04043F040400007088FC34
:103E900008300000001820FF211E0000F008F0008C
:103EA000E018000000211C031E211E0000F00888FD
:103EB000700000001E2123241927211010160E0067
:103EC000000000000000000000000000000000E012
:103ED0001804020000000007182040000002041827
:103EE000E00000000040201807000000404080F083
:103EF000804040000202010F01020200000000F0B9
:103F0000000000000101011F01010100000000008C
:103F10000000000080B07000000000000000000001
:103F2000000000000001010101010101000000008A
:103F30000000000000303000000000000000000021
:103F400080601804006018060100000000E01008FE
:103F50000810E000000F102020100F00001010F8D3
:103F6000000000000020203F202000000070080812
:103F70000888700000302824222130000030088892
:103F8000884830000018202020110E000000C020BA
:103F900010F8000000070424243F240000F80888DB
:103FA000880808000019212020110E0000E0108868
:103FB00088180000000F112020110E00003808089A
:103FC000C83808000000003F0000000000708808AA
:103FD00008887000001C222121221C0000E010082B
:103FE0000810E0000000312222110F00000000C084
:103FF000C000000000000030300000000000008021
:104000000000000000008060000000000000804010
:104010002010080000010204081020004040404029
:10402000404040000404040404040400000810207C
:1040300040800000002010080402010000704808C1
:104040000808F0000000003036010000C030C82829
:10405000E810E0000718272423140B000000C038E4
:10406000E0000000203C23020227382008F888885E
:1040700088700000203F202020110E00C03008086A
:1040800008083800071820202010080008F8080841
:104090000810E000203F202020100F0008F888883A
:1040A000E8081000203F20202320180008F8888806
:1040B000E8081000203F200003000000C03008087E
:1040C0000838000007182020221E020008F8080007
:1040D0000008F808203F210101213F20000808F8CE
:1040E000080800000020203F2020000000000808F1
:1040F000F8080800C08080807F00000008F888C0B1
:1041000028180800203F20012638200008F8080061
:1041100000000000203F20202020300008F8F80098
:10412000F8F80800203F003F003F200008F830C0AA
:104130000008F808203F200007183F00E01008089A
:104140000810E0000F10202020100F0008F80808C9
:104150000808F000203F210101010000E0100808DC
:104160000810E0000F18242438504F0008F8888801
:1041700088887000203F2000030C302000708808E1
:10418000080838000038202121221C00180808F8EF
:10419000080818000000203F2000000008F8080070
:1041A0000008F808001F202020201F000878880041
:1041B00000C83808000007380E010000F80800F8B1
:1041C0000008F800033C0700073C0300081868805B
:1041D0008068180820302C03032C30200838C800D1
:1041E000C83808000000203F200000001008080820
:1041F000C83808002038262120201800000000FEC2
:10420000020202000000007F40404000000C30C06D
:1042100000000000000000010638C0000002020299
:10422000FE000000004040407F000000000004024B
:104230000202040000000000000000000000000076
:104240000000000080808080808080800002020466
:10425000000000000000000000000000000080805E
:10426000808000000019242222223F2008F80080CC
:1042700080000000003F112020110E00000000808F
:1042800080800000000E112020201100000000801E
:104290008088F800000E112020103F200000808050
:1042A00080800000001F222222221300008080F064
:1042B000888888180020203F20200000000080808F
:1042C00080808000006B94949493600008F80080D4
:1042D00080800000203F210000203F20008098982F
:1042E000000000000020203F20200000000000808F
:1042F0009898000000C08080807F000008F80000CF
:1043000080808000203F24022D302000000808F823
:10431000000000000020203F2020000080808080DE
:1043200080808000203F20003F20003F8080008070
:1043300080800000203F210000203F20000080807E
:1043400080800000001F202020201F00808000802F
:104350008000000080FFA12020110E0000000080DE
:1043600080808000000E112020A0FF8080808000CF
:104370008080800020203F212000010000008080FC
:10438000808080000033242424241900008080E0F1
:10439000808000000000001F2020000080800000BE
:1043A00000808000001F202020103F20808080009F
:1043B0000080808000010E300806010080800080AF
:1043C000008080800F300C030C300F0000808000D4
:1043D000808080000020312E0E31200080808000FF
:1043E0000080808080818E701806010000808080AF
:1043F000808080000021302C22213000000000004D
:10440000807C020200000000003F404000000000ED
:10441000FF00000000000000FF0000000002027C1E
:10442000800000000040403F000000000006010145
:104430000202040400000000000000000810000058
:104440004C3E000806080000BC4400080A0A0000B0
:10445000544400083078FCB633313030303000003E
:1044600000010302000000000A0A00007044000876
:10447000303030303133B6FC7830000000000203B9
:10448000010000000004070B0E111417191C1E1F59
:1044900021222324252526262525242322211F1EEB
:1044A0001C191714110E0B07040000000C17000054
:1044B0009848000808080000BC48000800000000F8
:1044C00000000000002F000000000700070000149B
:1044D0007F147F1400242A7F2A12006264081323A9
:1044E00000364955225000000503000000001C2240
:1044F0004100000041221C000014083E081400087E
:10450000083E0808000000A060000008080808082D
:10451000000060600000002010080402003E5149C5
:10452000453E0000427F4000004261514946002163
:1045300041454B31001814127F100027454545397D
:10454000003C4A49493000017109050300364949D8
:10455000493600064949291E000036360000000091
:1045600056360000000814224100001414141414DC
:104570000000412214080002015109060032495985
:10458000513E007C1211127C007F49494936003EA1
:1045900041414122007F4141221C007F494949415C
:1045A000007F09090901003E4149497A007F080856
:1045B000087F0000417F4100002040413F01007F13
:1045C00008142241007F40404040007F020C027FDF
:1045D000007F0408107F003E4141413E007F0909F1
:1045E0000906003E4151215E007F09192946004617
:1045F000494949310001017F0101003F4040403FEE
:10460000001F2040201F003F4038403F0063140837
:104610001463000708700807006151494543000012
:104620007F41410000552A552A55000041417F0035
:10463000000402010204004040404040000001022A
:104640000400002054545478007F48444438003813
:104650004444442000384444487F0038545454189B
:1046600000087E0901020018A4A4A47C007F0804AD
:1046700004780000447D4000004080847D00007F7D
:10468000102844000000417F4000007C041804789A
:10469000007C0804047800384444443800FC242496
:1046A00024180018242418FC007C0804040800487E
:1046B0005454542000043F444020003C4040207C9F
:1046C000001C2040201C003C4030403C004428108E
:1046D0002844001CA0A0A07C004464544C44141442
:1046E0001414141400000000000000000000FEFF7D
:1046F000FFFBFFFFBFBFBF3F3E3FFCF8F0F0F8FC01
:10470000FCFEFFFFFFFFFF7F040C00000000808025
:104710008183878F9F97878FFFC3C381808080802D
:1047200080808000000000000000000000FEFFF11B
:10473000F5F1FFFFFFFF7F7E7FFCF8E0E0F8FCFC77
:10474000FEFFFFFFFFFF7F041C0000000080808150
:104750008387FFDF878787FFC3C381808080808056
:10476000808000000000000000000000FEFFFFFB52
:10477000FFFFBFBFBF3F3E3FFCF8F0F0F8FCFCFE80
:10478000FFFFFFFFFF7F040C00000000808081839B
:1047900087FFDF8F87878F8B8B81808080808080F1
:1047A0008000000000000000000000FEFFFFFBFF93
:1047B000FFBFBFBF3F3E3FFCF8F0F0F8FCFCFEFF40
:1047C000FFFFFFFF7F040C000000008080818387D3
:1047D000FFDF8F878FFFC3C38180808080808080D0
:1047E0004A554D500053636F72653A25640042612B
:1047F00069447559756E00536572766F436F6E74B8
:10480000726C004F6C65640053657269616C004B9B
:10481000657900456E636F646572004D50553630A2
:10482000353000536572766F0020004D6F64756CF3
:10483000655F507265496E6974001B5B33316D5B57
:104840004552524F525D3A257325732025643A2014
:104850004932632057726974652054696D656F75BC
:1048600074210D0A001B5B33316D5B4552524F5270
:104870005D3A257325732025643A204932435F450C
:1048800056454E543A25580D0A004932635F576128
:1048900069744576656E740080C08000FFFFFFFF7D
:1048A00000E0E0E03F7F7F60FFFFFFFF607F3F1F92
:1048B00080808080FFFFFFFF80808080F800FFFF06
:1048C00000FCF000E8480008000000202001000083
:1048D000BC330008084A0008200100202010000016
:1048E000CC330008000000000000000000000000C1
:1048F000EE47000800000000AC3C0008000000008B
:104900000000000000000000E04700080000000078
:104910002C3D0008A10A0008000000000000000073
:104920000200060013480008D5120008000000002D
:1049300000000000393000000008014000080600B7
:10494000000000000000000000000200010055000F
:10495000000000000000010001000F000F480008E7
:10496000F117000800000000000000001B480008CC
:104970006518000800000000000000003C01002055
:10498000034800086924000800000000000000003F
:10499000005400407800000008480008352B00084B
:1049A000000000000000000023480008952C0008CB
:1049B0000000000000000000F747000800000000B1
:1049C000AC3D0008B92B000800000000000000000A
:1049D000292B0008510A0008110A0008892C000838
:1049E000CD1100082D2B0008AD2B000895260008DE
:1049F000591800087D130008ED180008992C0008CC
:084A0000D111000800000000C4
:04000005080000ED02
:00000001FF
